:020000020000FC
:040000000C94C30099
:040034000C943400F4
:10006800CF93CFB7CF93F09AC0910001CA95C093B0
:10007800000121F4C4E6C0930001F19ACF91CFBFEB
:10008800CF9118950FE204B900E005B900E00AB96C
:100098000CE30BB908950027009381000027009313
:1000A800800000E00093890009EF00938800002792
:1000B800009385000093840002E000936F000BE03A
:1000C80000938100089500E10093C4000027009385
:1000D800C50002E00093C00006E00093C20008E1FA
:1000E8000093C1000895022F00723030B1F0333010
:1000F800A1F0313049F0403081F0413091F0423088
:1001080091F0433091F00BC0403039F0413039F074
:10011800423059F0433039F004C010E008C011E013
:1001280006C018E004C014E002C012E000C0012BB1
:10013800202F25B90895503039F0513041F0523010
:1001480049F080ED97E008958AEF90E0089584EFF4
:1001580091E0089588EE93E0089533E00027009336
:10016800090100930A0100930701009308010E9406
:100178007700089530E044270E9477000895F894A6
:100188000FEF0DBF08E00EBF0E9446001EBA04E63E
:1001980000930001002700930101009302010093DE
:1001A80003010093040100930501009306010093E5
:1001B8000701009308010093090100930A0122270F
:1001C80030E0442751E069B16C730E944F000E94EF
:1001D80067007894F09BFECFF09879B17C73072F75
:1001E80000950623162F10951723872F8095807169
:1001F80089F0A0910501B091060180ED97E0A8175C
:10020800B90741F081E0A80F8827B81FA09305011E
:10021800B093060114FF21C0A0910501B091060119
:100228008827809305018093060180ED97E0A81741
:10023800B90740F0333019F00E94B1000EC00E9497
:10024800BE000BC0333049F030E04427002700934C
:100258000301009304010E94770002FF19C03330A4
:1002680041F031E044270027009303010093040183
:100278000FC0009109010395063008F0002700938C
:100288000901002700930A01009307010093080160
:1002980003FF09C0333039F032E0442700270093C8
:1002A80003010093040105FF06C0333021F0539584
:1002B800543008F05527672F8091C00087FF0FC082
:1002C8008091C600893729F4333049F00E94B10083
:1002D80006C08E3621F4333011F40E94BE0033304C
:1002E80009F1303009F460C0A0910301B091040114
:1002F80001E0A00F0027B01FA0930301B0930401F1
:100308000E949F00A817B90708F44EC00027009361
:100318000301009304014395453008F041E00E9431
:10032800770042C0009109010023F1F1A091070173
:10033800B091080101E0A00F0027B01FA0930701AA
:10034800B093080188EC90E0A817B90730F4022FA1
:1003580000720F60202F25B927C080E991E0A81707
:10036800B90728F4022F0072202F25B91DC000916B
:100378000A01039500930A0180910901081770F09A
:1003880084E893E0A817B90708F40EC00027009383
:100398000A01009307010093080106C00027009393
:1003A80007010093080100C0F19B14CFF198A091B8
:1003B8000101B091020101E0A00F0027B01FA09336
:1003C8000101B0930201333069F0A13021F400E259
:1003D800202B25B918C0A230B1F4022F0F7D202F91
:1003E80025B911C0A13039F0A33029F0A23039F075
:1003F800A43029F008C000E2202B25B904C0022F40
:100408000F7D202F25B9AE3108F4E4CE00270093E4
:08041800010100930201DECE98
:00000001FF
