:020000020000FC
:040000000C94F30069
:040034000C946400C4
:040048000C943400E0
:100068008F938FB78F939F93AF93BF93CF938091C5
:10007800C6008D30E9F08A30D9F0909114019923A7
:10008800B9F490911301992311F4833589F4ABE005
:10009800B1E0A90FCC27BC1F8C93939590931301C3
:1000A800983030F091E090931401992790931301C0
:1000B800CF91BF91AF919F918F918FBF8F911895DD
:1000C800CF93CFB7CF93F09AC0910001CA95C09350
:1000D800000121F4C4E6C0930001F19ACF91CFBF8B
:1000E800CF9118950FE204B900E005B900E00AB90C
:1000F8000CE30BB9089500270093810000270093B3
:10010800800000E00093890009EF00938800002731
:10011800009385000093840002E000936F000BE0D9
:1001280000938100089500E10093C4000027009324
:10013800C50002E00093C00006E00093C20008E991
:100148000093C1000895022F00723030B1F03330AF
:10015800A1F0313049F0403081F0413091F0423027
:1001680091F0433091F00BC0403039F0413039F014
:10017800423059F0433039F004C010E008C011E0B3
:1001880006C018E004C014E002C012E000C0012B51
:10019800202F25B90895503039F0513041F05230B0
:1001A80049F080ED97E008958AEF90E0089584EF94
:1001B80091E0089588EE93E0089533E000270093D6
:1001C800090100930A0100930701009308010E94A6
:1001D800A700089530E044270E94A7000895F894E6
:1001E8000FEF0DBF08E00EBF0E9476001EBA04E6AE
:1001F800009300010027009301010093020100937E
:100208000301009304010093050100930601009384
:100218000701009308010093090100930A01009364
:10022800130100931401222730E0442751E069B1FB
:100238006C730E947F000E9497007894F09BFECF19
:10024800F09879B17C73072F00950623162F109527
:100258001723872F8095807189F0A0910501B091AF
:10026800060180ED97E0A817B90741F081E0A80FD3
:100278008827B81FA0930501B093060114FF21C079
:10028800A0910501B091060188278093050180930C
:10029800060180ED97E0A817B90740F0333019F050
:1002A8000E94E1000EC00E94EE000BC0333049F0FE
:1002B80030E04427002700930301009304010E94C3
:1002C800A70002FF19C0333041F031E0442700276E
:1002D80000930301009304010FC0009109010395E5
:1002E800063008F0002700930901002700930A014F
:1002F800009307010093080103FF09C0333039F068
:1003080032E044270027009303010093040105FF0E
:1003180006C0333021F05395543008F05527672F25
:1003280090911401992311F40C944702A2E1B1E0D1
:100338009C91973511F00C944202ACE0B1E08D919C
:100348009D91890F9D91890F9D91890F982F929565
:100358009F709A3010F0995C01C0905DA0E1B1E007
:10036800CC919C1711F00C944202982F9F709A30F0
:1003780010F0995C01C0905DA1E1B1E0CC919C17AF
:1003880011F00C944202ACE0B1E08D919C91905335
:10039800CC27C0931401C0931301853549F431E08B
:1003A8004427002700930301009304010C9447029B
:1003B800843449F432E04427002700930301009372
:1003C80004010C944702833559F430E04427002790
:1003D80000930301009304010E94A7000C944702B4
:1003E800833421F40E94E1000C944702883521F4FB
:1003F8000E94EE000C9447028C34A9F4913041F02D
:10040800923041F0933041F0943041F00C9447021F
:1004180001E005C002E003C004E001C008E0202BB1
:1004280025B90C9447028634A9F4913041F09230F2
:1004380041F0933041F0943041F00C9447020EEFB4
:1004480005C00DEF03C00BEF01C007EF202325B94E
:100458000C944702813459F430E044270027009374
:100468000301009304010E94A7000C9447028435FD
:1004780029F4943008F4592F0C944702CC27C093E0
:100488001401C0931301333009F1303009F460C00E
:10049800A0910301B091040101E0A00F0027B01F53
:1004A800A0930301B09304010E94CF00A817B907D5
:1004B80008F44EC0002700930301009304014395FC
:1004C800453008F041E00E94A70042C000910901B0
:1004D8000023F1F1A0910701B091080101E0A00FFC
:1004E8000027B01FA0930701B093080188EC90E0A3
:1004F800A817B90730F4022F00720F60202F25B912
:1005080027C080E991E0A817B90728F4022F0072E4
:10051800202F25B91DC000910A01039500930A01F7
:1005280080910901081770F084E893E0A817B907CB
:1005380008F40EC0002700930A01009307010093F6
:10054800080106C00027009307010093080100C0B6
:10055800F19B74CEF198A0910101B091020101E0E4
:10056800A00F0027B01FA0930101B0930201333000
:1005780069F0A13021F400E2202B25B918C0A2307F
:10058800B1F4022F0F7D202F25B911C0A13039F009
:10059800A33029F0A23039F0A43029F008C000E2D5
:1005A800202B25B904C0022F0F7D202F25B9AE318D
:1005B80008F444CE002700930101009302013ECEC7
:00000001FF
