:020000020000FC
:040000000C94A100BB
:040034000C943400F4
:10006800CF93CFB7CF93F09AC0910001CA95C093B0
:10007800000121F4C4E6C0930001F19ACF91CFBFEB
:10008800CF9118950FE204B900E005B900E00AB96C
:100098000CE30BB908950027009381000027009313
:1000A800800000E00093890009EF00938800002792
:1000B800009385000093840002E000936F000BE03A
:1000C800009381000895022F00723030B1F0333070
:1000D800A1F0313049F0403081F0413091F04230A8
:1000E80091F0433091F00BC0403039F0413039F095
:1000F800423059F0433039F004C010E008C011E034
:1001080006C018E004C014E002C012E000C0012BD1
:10011800202F25B90895503039F0513041F0523030
:1001280049F080ED97E008958AEF90E0089584EF14
:1001380091E0089588EE93E00895F8940FEF0DBFCD
:1001480008E00EBF0E9446001EBA04E600930001B4
:10015800002700930101009302010093030100931B
:100168000401009305010093060100930701009321
:1001780008010093090100930A01222730E044276F
:1001880051E069B16C730E944F007894F09BFECFE8
:10019800F09879B17C73072F00950623162F1095D8
:1001A8001723872F8095807191F0A0910501B09158
:1001B800060180ED97E0A817B90749F081E0A80F7C
:1001C8008827B81FA0930501B093060100C014FF4B
:1001D8002DC0A0910501B0910601882780930501E3
:1001E8008093060180ED97E0A817B907A0F0333097
:1001F80069F033E000270093090100930A01009396
:100208000701009308010E94670010C030E04427EE
:100218000E9467000BC0333049F030E044270027C4
:1002280000930301009304010E94670002FF19C0B4
:10023800333041F031E04427002700930301009355
:1002480004010FC0009109010395063008F000274A
:1002580000930901002700930A0100930701009306
:10026800080103FF09C0333039F032E04427002782
:10027800009303010093040105FF06C0333021F009
:100288005395543008F05527672F333009F1303033
:1002980009F45FC0A0910301B091040101E0A00F2F
:1002A8000027B01FA0930301B09304010E948F00A0
:1002B800A817B90708F44DC000270093030100935D
:1002C80004014395453008F041E00E94670041C0B1
:1002D800009109010023E9F1A0910701B0910801FB
:1002E80001E0A00F0027B01FA0930701B0930801F9
:1002F80088EC90E0A817B90730F4022F00720F605D
:10030800202F25B926C080E991E0A817B90728F45D
:10031800022F0072202F25B91CC000910A010395F5
:1003280000930A0180910901081768F084E893E0B6
:10033800A817B90770F0002700930A010093070176
:100348000093080106C000270093070100930801E5
:1003580000C0F19B1BCFF198A0910101B09102015F
:1003680001E0A00F0027B01FA0930101B093020184
:10037800333069F0A13021F400E2202B25B918C0F0
:10038800A230B1F4022F0F7D202F25B911C0A13062
:1003980039F0A33029F0A23039F0A43029F008C090
:1003A80000E2202B25B904C0022F0F7D202F25B98C
:1003B800AE3108F4EBCE002700930101009302014F
:0203C800E5CE80
:00000001FF
